:020000040800F2
:10000000B0070020ED01000841540008D71800088F
:100010003D540008C3160008235D000800000000DE
:100020000000000000000000000000001956000859
:10003000C716000800000000C95400082D5700082A
:10004000070200080702000807020008070200086C
:10005000070200080702000807020008070200085C
:10006000070200080702000807020008070200084C
:10007000070200080702000807020008070200083C
:10008000070200080702000807020008070200082C
:10009000070200080702000807020008070200081C
:1000A000070200080702000807020008070200080C
:1000B000070200082D580008070200080702000880
:1000C00007020008070200080702000807020008EC
:1000D00007020008015B0008070200080702000889
:1000E00007020008070200080702000807020008CC
:1000F00007020008070200080702000807020008BC
:1001000007020008070200080702000807020008AB
:10011000070200080702000821590008070200082A
:10012000070200080702000807020008070200088B
:1001300000F002F800F04AF80AA090E8000C8244AF
:100140008344AAF10107DA4501D100F03FF8AFF28C
:10015000090EBAE80F0013F0010F18BFFB1A43F0A5
:1001600001031847689D0000889D0000103A24BFD5
:1001700078C878C1FAD8520724BF30C830C144BF0C
:1001800004680C607047000000230024002500264E
:10019000103A28BF78C1FBD8520728BF30C148BFEA
:1001A0000B607047662908F09081782900F0808004
:1001B000002070471FB500F031FB04000020002133
:1001C00007F060F8E0601FBD10B510BD00F046FC00
:1001D0001146FFF7EFFF06F095F800F064FC03B45A
:1001E000FFF7F2FF03BC05F027FE00000948804737
:1001F00009480047FEE7FEE7FEE7FEE7FEE7FEE709
:10020000FEE7FEE7FEE7FEE704480549054A064B20
:10021000704700003157000831010008B00100208C
:10022000B0070020B0030020B0030020704700009A
:100230000FB4044910B503AA029800F0DDFA10BC0F
:100240005DF814FB200000202DE9F0410E46044625
:10025000002020622046E168884730B3252805D079
:10026000D4E901219047206A401CF2E7E16820466A
:1002700000278847050018D0A5F14100192802D8A9
:1002800020354FF400673246294620462760FFF7A5
:1002900089FF40B1012804D0F61D26F00706083674
:1002A000D8E7361DD6E72846DAE7206ABDE8F081B0
:1002B00070B504460D4621461068AFF300802188D2
:1002C000090502D50F4A7A4402E00E4A7A440E32FA
:1002D000002104F1240305E000F00F060009965DFB
:1002E0005E54491C0028F7D120780023000704D56C
:1002F000702D02D009B1022311322046BDE87040B2
:1003000000F011B8B49A000070477047704770470A
:1003100010B500F087FA006810BD10B5044600F073
:1003200081FA046010BD2DE9F0470D4699469246CA
:10033000044600F124080168880604D5E06921F02C
:100340001001216000E00120A84201DD471B00E010
:100350000027A1697A1902EB0900081AA061207828
:10036000C00602D42046AFF30080002608E0D4E99E
:1003700001211AF806009047206A401C761C206272
:100380004E45F4DB2078C0060AD52046AFF3008046
:1003900006E0D4E9012130209047206A401C206209
:1003A000381EA7F10107F4DC07E0D4E9012118F8B1
:1003B00005009047206A401C2062281EA5F1010517
:1003C000F3DC2046AFF300802078000602D502203F
:1003D000BDE8F0870120FBE770472DE9FF4F0C4691
:1003E0001E464FF0FF378BB0D2E90001DDF8608088
:1003F0000A908A46C1F30A5505B93D4600210846D0
:100400004FF00000BAF1000F00F4400005DA00EBF5
:1004100080004FF4400101EA50004FEA9059B9F1D1
:10042000010F00DDB9460A9850EA4A000ED044F6A2
:100430001050A5F2FF3545432F14B8F1000F1ED020
:100440007542291E1EDDC9F100021CE0B8F1010F42
:100450004FF0000001D0302103E0F24305E02154C9
:10046000401CB042FBDB30460022002121540B9996
:10047000C1F80880C1E900200FB0BDE8F08FBD1BB6
:100480006D1CDEE74A4600DA694206A800F06CFA05
:1004900006AB93E8070003AB83E8070050460A99D0
:1004A00000F04AFB8DE80700A0F500501F380090CF
:1004B0000398002D0ADD42F21F014A46084400233A
:1004C00003A90390684600F0B3FD09E0A0F50050D1
:1004D0004A461F38002303A90390684600F0BDFD7B
:1004E0008DE807000004000C03D04FF0FF304108F6
:1004F00000E01046B8F1000F03D00022009215462C
:100500001EE0751E05D400F091F9303262556D1E63
:10051000F9D5B3460122084302D000227F1C04E033
:100520002078302801D100227F1E002A099784D02C
:100530001DE0112D07DA00F079F9303262556D1C9B
:1005400050EA0102F5D1084302D00098C8B10EE08C
:100550000021681E05E0235C625C63542254401E47
:10056000491C8142F7DBAB46A81B401E09900020C6
:1005700004F80B000B98099AC0F80880C0E9002B1A
:100580007AE711264FF0000857E72DE9F04F88462B
:100590000446D21D22F0070191B0D1E90001CDE956
:1005A0000A0105F0C0FB02460B98C00F01D02D20B8
:1005B00007E02068810701D52B2002E0202101EA15
:1005C000C000032A099001D0072A05DB03464146F3
:1005D000204600F089F90BE12078800601D5E0691A
:1005E00000E00620B8F1650F814606D0B8F1660F2D
:1005F00018D0B8F1670F70D131E00020B9F1110FB8
:10060000009001DB112301E009F101030AAA01A90D
:100610000CA8FFF7E2FEDDE90C70002609F10105E8
:10062000834647E001204B4600904FF000470AAA5E
:1006300001A90CA8FFF7D1FEDDE90DB00C995D46CC
:10064000002610B909F101000D18B9EB050003D41B
:10065000C0F1FF3609F10105A5EB09002BE0B9F166
:10066000010F01DA4FF001090020B9F1110F0090DC
:10067000484601DD112300E003460AAA01A90CA89F
:10068000FFF7ABFEDDE90C704D460026834620786F
:1006900000070AD4AB4500DA5D4601A8012D04DD50
:1006A000411911F8011C302907D04F4502DA17F122
:1006B000040F04DA012082460FE06D1EEEE7002FE2
:1006C00002DCED1B3E4403E0781CA84200DD7D1CEB
:1006D000B81B00F1010A4FF000472078000703D44F
:1006E000AA4501DB4FF0FF3A0021B7F1004F0DF1B1
:1006F00043088DF8431024D002202B23002F01DA69
:100700007F422D230A21021EA0F1010000DC5FB10F
:1007100097FBF1FC97FBF1F201FB1C7C17460CF1F7
:10072000300C08F801CDEEE7A8F101000370218834
:10073000090501D5452100E06521A0F1010800F877
:10074000011C09980FA9A1EB0807FF1D00B10120AA
:10075000411901EBEA70A1693844081A401EA061F2
:100760002078C00602D42046AFF30080099828B153
:10077000D4E901219047206A401C20622078C006FD
:1007800022D52046AFF300801EE0002E04DBB345E7
:1007900002DD01A8805D00E03020D4E9012190470E
:1007A000206A401C2062761CAAF101005FEA000A60
:1007B0000AD100F033F8C0680168405CD4E9012137
:1007C0009047206A401C2062281EA5F10105DCDC50
:1007D00007E0D4E9012118F8010B9047206A401C7A
:1007E0002062381EA7F10107F3DC2046AFF300803A
:1007F000032011B041E60000074B70B50D467B4465
:1008000000F05FF80446284600F020F910B14FF0E0
:10081000FF3070BD204670BD3B5A00000048704755
:1008200070010020004870475001002030B5B0F141
:100830000A024FEA900E71F100034EEA817EB0EB9E
:100840000E0061EB91014FEA101E4EEA017E10EBA3
:100850000E0041EB11114FEA102E4EEA016E10EB23
:100860000E0041EB11214FEA104E4EEA014E10EB03
:100870000E0041EB1141401841F100014FEAD00058
:1008800040EA41704FEAD10110EB80054FEA810444
:1008900044EA907444EB01046D1944EB0404521BC8
:1008A000A3414FF0000348BF0A3200D530BD401CC1
:1008B00041F1000130BD000001694A1C0261087865
:1008C000704700B58FB0CDE9013100210591054990
:1008D0007944CDE9031011466846FFF7B5FC0FB027
:1008E00000BD0000E5FFFFFF2DE9F0411F46044673
:1008F00003260168072A01F4006004DB08B116A58D
:1009000005E016A503E008B115A500E015A521F046
:1009100010002060A069C01EA0610FB1401EA06140
:100920002046AFF300804FB1D4E90121384690470B
:10093000206A401C2062C01C206206E0206AFAE7A0
:10094000D4E9012115F8010B9047761EF8D2204614
:10095000AFF30080BDE8F0814E414E006E616E0045
:10096000494E4600696E66002DE9F04781461646FD
:100970008AB0354878440DC88DE80D003248784477
:10098000801C03AC0DC884E80D0041F69B30084480
:10099000372190FBF1F290FBF1F5A5F1800501FB09
:1009A00012041B3C02D56442012000E00020DFF865
:1009B00098A080460027FA44AAF1BE0A0EE0E0079C
:1009C0000AD03246684607EB470101230AEB810152
:1009D00000F043FB8DE8070064107F1C002CEED173
:1009E000194F7F44AE3F19E0E80715D007EB04101C
:1009F0000DF1180A90E80E008AE80E00C068F04277
:100A000001D1981908903246012306A903A800F0E5
:100A100024FB03AB83E807006D10641C002DE3D1B9
:100A20004FF0010332466946B8F1000F03A802D027
:100A300000F0FEFA01E000F010FBC9E90001C9F87E
:100A400008200AB0BDE8F0873C950000007B00F06C
:100A50008000704700487047500100207546FFF73E
:100A6000F9FFAE4605006946534620F0070085466B
:100A700018B020B5FFF7C8FBBDE820404FF00006D6
:100A80004FF000074FF000084FF0000B21F0070176
:100A9000AC46ACE8C009ACE8C009ACE8C009ACE8B9
:100AA000C0098D46704710B50446AFF3008020465C
:100AB000BDE81040FFF793BB4FF0013C50F8042B0A
:100AC00051F8043B9A4221D1A2EB0C03934313EA61
:100AD000CC1317D150F8042B51F8043B9A4215D18E
:100AE000A2EB0C03934313EACC130BD150F8042B65
:100AF00051F8043B9A4209D1A2EB0C03934313EA49
:100B0000CC13DBD04FF00000704700BFD01A01BA01
:100B1000B1FA81F101F0180122FA01F0CB40C1F1E4
:100B20002001DBB2C0B2C01A2CFA01F3D11A9143F2
:100B300011EAC311E6D170475FEA400C08BF91F09B
:100B4000000F4FEA8C234FEAC12243EA51514FEA8A
:100B50001C5018BF00F5F0404FEA300018BF41F0BC
:100B600000415FEA6C5C00F02980BCF1FF3F08BFE8
:100B700040F080407047130C06BF12044FF0100C79
:100B80004FF0000C130E04BF12020CF1080C130FEF
:100B900004BF12010CF1040C930F04BF92000CF17E
:100BA000020CD30F04BF52000CF1010C11464FF0A0
:100BB0000002A0F11F00A0EB0C00704711F0004FE5
:100BC00008BF704731F000413FF4D5AF0B0C06BFB2
:100BD00009044FF0100C4FF0000C0B0E04BF09027B
:100BE0000CF1080C0B0F04BF09010CF1040C8B0F66
:100BF00004BF89000CF1020CCB0F04BF49000CF1BB
:100C0000010CCCF12003A0EB0C0022FA03F302FA52
:100C10000CF241EA030100F10100704720F07F4C23
:100C200080EA030023F07F47ACEB070303F57C5316
:100C300000F0004003F1FF032DE980494FEA154B16
:100C400009B44FEA144325EA0B4E24EA03480FF295
:100C5000042606EB132749083E785FEA320203FBBD
:100C60000667C7F5000707FB06F64FEA54374FEA59
:100C7000D64606F1020607FB066CCCF1005C4FEA93
:100C80001C472CEA074C07FB06F40CFB06F504EBAB
:100C900015464FEA961634BF00204FF000404FEA49
:100CA000D13706FB07FC4FEA1C4C0CFB0BF7D21BA1
:100CB00003FB0CF761EB07010CFB0EF7B0EB0740F1
:100CC00072EB17420CFB08F734BFA2EB0742B2EB02
:100CD000074261EB17414FEA0C444FEA910706FBCC
:100CE00007FC4FEA1C4C0CFB0BF7B0EBC74072EB58
:100CF000573203FB0CF734BFA2EBC742B2EBC7423B
:100D000061EB57310CFB0EF7B0EBC70072EB57727B
:100D10000CFB08F734BFA2EBC702B2EBC70261EBD2
:100D20005771039F4FEA816141EA921104EBCC04B1
:100D30004FEAD1374FEA826206FB07FC42EA901283
:100D40004FEA80604FEA1C4C0CFB0BF7D21B03FBF5
:100D50000CF761EB07010CFB0EF7B0EB074072EBF1
:100D600017420CFB08F734BFA2EB0742B2EB074275
:100D700061EB17414FEA8C554FEA910704EB9C2435
:100D800006FB07FC4FEA1C4C0CFB0BF7B0EBC74013
:100D900072EB573203FB0CF734BFA2EBC742B2EB46
:100DA000C74261EB57310CFB0EF7B0EBC70072EB9B
:100DB00057720CFB08F734BFA2EBC702B2EBC702B5
:100DC00061EB577115EB4C254FEA816141EA9211B5
:100DD0004FEA82624FEAD13742EA901206FB07FCE3
:100DE00044F100044FEA80604FEA1C4C0CFB0BF707
:100DF000D21B03FB0CF761EB07010CFB0EF7B0EB0A
:100E0000074072EB17420CFB08F734BFA2EB074216
:100E1000B2EB074261EB174115EB1C154FEA81312C
:100E200041EA92414FEA823242EA90424FEA8030F0
:100E30004FEA0C7644F1000448EA03434EEA0B48BB
:100E40004FF0000EB2EB080C71EB030724BF6246B3
:100E500039464EEB0E0E4FF0000B0018524149413F
:100E60004BEB0B0BB2EB080C71EB03077BF1000BA8
:100E700024BF624639464EEB0E0E4FF0000B0018B1
:100E8000524149414BEB0B0BB2EB080C71EB0307E2
:100E90007BF1000B24BF624639464EEB0E0E51EA41
:100EA000020718BF46F0010616EB0E7655F1000258
:100EB00054F1000103D5BDE88901BDE80088BDE813
:100EC0008901BDE80048B619524141EB0101A3F187
:100ED0000103704780807F7E7D7C7B7A797877768E
:100EE00076757473727171706F6E6E6D6C6C6B6A07
:100EF0006A696868676666656464636362616160A5
:100F0000605F5F5E5E5D5D5C5C5B5B5A5A59595821
:100F1000585757565655555554545353525252518B
:100F2000515050504F4F4F4E4E4D4D4D4C4C4C4BE1
:100F30004B4B4A4A4A494949484848474747474628
:100F40004646454545444444444343434342424264
:100F500042414141002B9C4630D477002BD01CB538
:100F60004FEA370703B44FF010004FF01001BAF109
:100F7000000F06D0BCF1000FDCBF40F0080040F0CD
:100F800008014FF000000FBCBDE810400BF1010B51
:100F9000BBF1010F08BF5FEA170722BF12F1010280
:100FA00011F101014FF0004143F1000300F0004056
:100FB00043EA00007047F9D35708D0E746EA0646EF
:100FC00013F1400F4FEA16461FDD13F1200FDFBF6C
:100FD00016430A46002120335B42BED0C3F12007EE
:100FE00046EA064602FA07F74FEA164646EA0706B9
:100FF000C3F1200722FA03F201FA07F721FA03F1FD
:101000004FF0000342EA0702A7E746EA020646EA73
:1010100006464FEA164646EA0106BCBF46EA0646C1
:10102000360C4FF000034FF000024FF0000194E740
:101030002DE9804C9A46934670B491E8380007C871
:1010400031EA400C48BF34EA430C03D5FFF7E6FD14
:10105000FFF780FFF0BCBDE8008C2DE9804C9A467C
:10106000934670B491E8380007C810F0804F08BF6D
:1010700013F0804F03D100F005F8FFF76BFFF0BCD1
:10108000BDE8008C20F07F4780EA030023F07F4C0E
:1010900007EB0C03A3F57C5300F00040A3F1FE0323
:1010A00092F0000F00F0B38095F0000F00F0778011
:1010B0002DE901494FEA11404FEA144621EA004860
:1010C00000FB06FC24EA064708FB06F607FB08F8C7
:1010D00000FB07F718EB06484CEB164C4FEA124B97
:1010E00018EB07484FEA15464CEB174022EA0B4E27
:1010F0000BFB06FC25EA06470EFB06F607FB0EFE79
:101100000BFB07F71EEB064E4CEB164C4FF00006A0
:101110001EEB074E4CEB174B18EB0B0840F1000091
:1011200018EB0E0B58EB000840F100008F1A4FF03F
:1011300000013CBFC943661B14BFB5EB040C002182
:101140003CBFC943F61B4FEA17444EEA8E0E27EA0E
:1011500004454FEA1C4704FB07622CEA074C05FBD9
:1011600007F70CFB05F604FB0CFC16EB074642EBFD
:10117000174216EB0C4642EB1C421BEB060658EBE3
:101180000202414146EA9E0601D5BDE80189B61931
:10119000524141EB0101A3F10103BDE801894FEA8E
:1011A00014454FEA114724EA054621EA074C05FB9E
:1011B00007F406FB07F70CFB06F105FB0CFC11EB33
:1011C000074144EB17444FEA124711EB0C4144EB43
:1011D0001C4422EA074C05FB07F206FB07F70CFB51
:1011E00006F605FB0CFC16EB074642EB174216EB26
:1011F0000C4642EB1C456A1854F1000148BF704789
:10120000B619524141EB0101A3F10103704795F07A
:10121000000F37D04FEA11424FEA144721EA024645
:1012200024EA074C02FB07F106FB07F70CFB06F468
:1012300002FB0CFC14EB074441EB17414FEA154746
:1012400014EB0C4441EB1C4125EA074C02FB07F56B
:1012500006FB07F70CFB06F602FB0CFC16EB074639
:1012600045EB174516EB0C4645EB1C42121951F1A4
:10127000000148BF7047B619524141EB0101A3F18B
:10128000010370474FEA14454FEA114724EA054627
:1012900021EA074C05FB07F106FB07F70CFB06F2FA
:1012A0004FF0000605FB0CFC12EB074241EB174127
:1012B00012EB0C4251EB1C4148BF7047921841EBB6
:1012C0000101A3F10103704721B1826842F00102DC
:1012D000826003E0826822F00102826070470000B1
:1012E00010B504461248844208D10121401504F08B
:1012F00019F90021601504F015F917E00D48844232
:1013000008D10121001504F00DF90021201504F089
:1013100009F90BE00848844208D10121C80304F010
:1013200001F900214FF4004004F0FCF810BD00006A
:101330000024014000280140003C014001460020FB
:101340008A6802F004020AB1012000E00020704720
:101350000146C86C80B270470246002013680B40FB
:101360000BB1012000E000207047014600208A6890
:1013700002F008020AB1012000E0002070470000DE
:1013800030B502460020002350680F4C20400D79F4
:101390000C6844EA05242043506090680B4C2040C0
:1013A000D1E902542C434D7944EA4504204390602E
:1013B000D06A20F470000C7C641EE4B2234340EA3F
:1013C0000350D06230BD0000FFFEF0FFFDF7F1FFDB
:1013D000F0B504460D4600200021092D11DDE0681E
:1013E000A5F10A0606EB4607072606FA07F1884329
:1013F000A5F10A0606EB460603FA06F10843E0608B
:101400000CE0206905EB4507072606FA07F188433B
:1014100005EB450603FA06F108432061072A0FDAB7
:10142000606B561E06EB86071F2606FA07F18843F7
:10143000561E06EB860605FA06F10843606322E0B5
:101440000D2A0FDA206BD61F06EB86071F2606FA39
:1014500007F18843D61F06EB860605FA06F1084316
:10146000206310E0E06AA2F10D0606EB86071F2656
:1014700006FA07F18843A2F10D0606EB860605FA87
:1014800006F10843E062F0BD816841F00801816027
:10149000704721B1826842F4A002826003E0826852
:1014A00022F4A00282607047816841F004018160EB
:1014B0007047000000B587B001214FF4017004F0BF
:1014C00021F84FF4004004F001F84020ADF804008A
:1014D00000208DF8070001A9174800F0F5F817481B
:1014E000FFF7FEFE002002908DF80C008DF80D0035
:1014F0004FF4602004900020059001208DF8180022
:1015000002A90E48FFF73CFF01210C48FFF7DCFE63
:101510000A48FFF7B9FF00BF0848FFF726FF002879
:10152000FAD10648FFF7C0FF00BF0448FFF706FFE7
:101530000028FAD107B000BD000801400024014096
:1015400000B587B001214FF4017003F0DBFF4FF4C9
:10155000004003F0BBFF0820ADF8040000208DF828
:10156000070001A9174800F0AFF81748FFF7B8FEC9
:10157000002002908DF80C008DF80D004FF46020D3
:1015800004900020059001208DF8180002A90E4853
:10159000FFF7F6FE01210C48FFF796FE0A48FFF719
:1015A00073FF00BF0848FFF7E0FE0028FAD10648A5
:1015B000FFF77AFF00BF0448FFF7C0FE0028FAD10A
:1015C00007B000BD000801400024014000B587B00D
:1015D00001214FF4017003F095FF4FF4004003F038
:1015E00075FF0120ADF8040000208DF8070001A967
:1015F000174800F069F81748FFF772FE00200290C4
:101600008DF80C008DF80D004FF460200490002040
:10161000059001208DF8180002A90E48FFF7B0FED2
:1016200001210C48FFF750FE0A48FFF72DFF00BFCD
:101630000848FFF79AFE0028FAD10648FFF734FF62
:1016400000BF0448FFF77AFE0028FAD107B000BDBA
:1016500000080140002401400EB50121102003F0D4
:1016600041FF42F21070ADF804004720ADF80000D1
:1016700069460A4804F0F2F90121084804F064F9C7
:1016800001221146054804F091F90121034804F0B4
:1016900061F90021102003F025FF0EBD001000406D
:1016A00008B536208DF8000001208DF801000220D9
:1016B0008DF8020001208DF80300684603F0C2FE99
:1016C00008BD00BFFEE770472DE9F0410246002546
:1016D0000026002000230024002791F803C00CF00E
:1016E0000F0591F803C00CF0100CBCF1000F03D0F3
:1016F00091F802C04CEA050591F800C0BCF1000F5A
:1017000031D0146800202BE04FF0010C0CFA00F3EC
:10171000B1F800C00CEA03069E4220D183004FF0CE
:101720000F0C0CFA03F7BC4305FA03FC4CEA040463
:1017300091F803C0BCF1280F06D14FF0010C0CFA50
:1017400000FCC2F814C00AE091F803C0BCF1480FD5
:1017500005D14FF0010C0CFA00FCC2F810C0401C7F
:101760000828D1D31460B1F800C0BCF1FF0F34DDFC
:10177000546800202EE000F1080C4FF0010808FA30
:101780000CF3B1F800C00CEA03069E4221D183009D
:101790004FF00F0C0CFA03F7BC4305FA03FC4CEABC
:1017A000040491F803C0BCF1280F05D100F1080C26
:1017B00008FA0CF8C2F8148091F803C0BCF1480F85
:1017C00007D100F1080C4FF0010808FA0CF8C2F834
:1017D0001080401C0828CED35460BDE8F081000082
:1017E000F0B50A46002300240021002500F0004641
:1017F000B6F1004F02D11D4EF16901E01B4E716838
:10180000C0F3034583B200F44016B6F5401F08D17B
:1018100021F07061154E766826F07066134F7E6079
:1018200012E000F48016B6F5801F06D1032606FAF2
:1018300005F4A14341F0706106E0460D360103FA5C
:1018400006F6B14341F0706122B1460D360103FA4C
:1018500006F6314300F00046B6F1004F02D1034EC8
:10186000F16101E0014E7160F0BD00000000014037
:101870000161704710B5044607230122214609483B
:10188000FFF7A6FD01210748FFF703FE00BF022175
:101890000448FFF761FD0028F9D00248FFF758FD22
:1018A00010BD0000002401402DE9F04107460C4620
:1018B0000025002608E03846FFF7DCFF0544052038
:1018C00004F070FC701CC6B2A642F4DBB5FBF4F069
:1018D00080B2BDE8F08100BFFEE7000010B5002037
:1018E0000F4908600F48406820F470400D49486077
:1018F0000846406840F44050486000200A49C1F85A
:10190000AC01022004F074FC0120054908600220AB
:1019100004F06EFC00200449C1F8B00110BD0000C5
:10192000B0012242001001400000224208B501210E
:10193000102003F0E7FD4FF4C050ADF80000102078
:101940008DF8030003208DF8020069460448FFF774
:10195000BBFE0120034908600349C1F8AC0108BD82
:1019600000100140B00122420000224210B50020C8
:101970000F4908600F48406820F470400D494860E6
:101980000846406840F44050486001200A49C1F8C8
:10199000AC01022004F02CFC012005490860022063
:1019A00004F026FC00200449C1F8B00110BD00007D
:1019B000B0012242001001400000224270B50546ED
:1019C00000241748406820F47040154948600846D4
:1019D000406840F400404860002616E000201149AD
:1019E0000860022004F004FC01200F49C1F8B00196
:1019F0006006040E0B488438006808B1601CC4B24D
:101A0000012004F0F5FB701CC6B2082EE6DB15B908
:101A1000FFF7ACFF01E0FFF761FF204670BD00005B
:101A200000100140B00122420000224270B504467D
:101A30001548406820F470401349486008464068E3
:101A400040F440504860002010490860002517E02D
:101A5000E0090E49091F08606006040E022004F028
:101A6000C7FB01200A49C1F8B001022004F0C0FB05
:101A7000002006490860022004F0BAFB681CC5B2C9
:101A8000082DE5DB70BD000000100140B0012242CE
:101A90000000224210B50F48406820F470400D4904
:101AA00048600846406840F44050486001200A49B8
:101AB00008600A49C1F8B001042004F099FB002035
:101AC00005490860042004F093FB00200349C1F895
:101AD000B00110BD00100140AC01224200002242C2
:101AE00010B50F48406820F470400D494860084622
:101AF000406840F44050486000200A4908600A49A4
:101B0000C1F8AC01042004F073FB01200549086012
:101B10000549C1F8AC01042004F06AFB10BD0000C7
:101B200000100140B00122420000224210B5002402
:101B30001448406820F470401249486008464068E4
:101B400040F40040486001200F49086004F050FB59
:101B500001200E49C1F8B00104F04AFB07E0601C07
:101B6000C4B2FA2C03DDFFF7BBFF012010BD06480D
:101B7000803800680028F2D10349091D086000BFC1
:101B8000F4E7000000100140AC01224200002242B4
:101B900008B50121142003F0B5FC01211148FFF71D
:101BA0001FFE4FF40040ADF8000048208DF8030000
:101BB00069460D48FFF788FD2020ADF80000482059
:101BC0008DF8030069460948FFF77EFD0120ADF856
:101BD000000028208DF8030069460348FFF774FDD4
:101BE00008BD000000023000000801400010014064
:101BF00070B5044600260E480588408845430021FC
:101C0000084603F01BF903F0D1FB00BF0DE04FF4D1
:101C100080700849086140004861074804608020DE
:101C20004861086180000861761CAE42EFD370BD48
:101C300040010020001001400C0C014010B504468A
:101C400049488471002C45D1F020474908804FF461
:101C5000A07048800846808845F21051884210D113
:101C60004FF43050404908814FF4285048814FF4D8
:101C70002C5088814FF4F07008804FF448704880F1
:101C80001AE03948808841F6631188420DD12C2032
:101C9000354908812B2048812A2088814FF4F07033
:101CA00008804FF44870488006E02C202E490881B7
:101CB0002A2048812B2088812B48808845F21031CA
:101CC00088424CD14FF4A070274908804FF4F0703F
:101CD000488044E04FF4A07023490880F0204880F9
:101CE0000846808845F21051884210D14FF4305098
:101CF0001D4908814FF4285048814FF42C508881A9
:101D00004FF4487008804FF4F07048801AE016488D
:101D1000808841F6631188420DD12C201249088138
:101D20002A2048812B2088814FF4487008804FF486
:101D3000F070488006E02C200B4908812A20488159
:101D40002B2088810848808845F21031884206D1CE
:101D50004FF4F070044908804FF4A07048800020D0
:101D600002F09CFE10BD00004001002030B503468B
:101D70000C4615469B48808845F21051884250D148
:101D80009849488903F000FB4FF480709649086138
:101D900040004861181295490860802092494861C6
:101DA0000861800008618F494989491C88B203F0A5
:101DB000EBFA4FF480708C49086140004861D8B25A
:101DC0008A4908608020884948610861800008616C
:101DD0008449888903F0D8FA4FF4807082490861F9
:101DE0004000486120128149086080207E49486196
:101DF0000861800008617B498989491C88B203F029
:101E0000C3FA4FF480707849086140004861E0B23D
:101E10007649086080207449486108618000086143
:101E2000C3E07048808841F6631188427DD16D48D7
:101E3000807920B96B480088401EC01A83B2694976
:101E4000488903F0A1FA4FF48070674908614000A7
:101E5000486118126549086080206349486108613B
:101E6000800008614010086140004861D8B25F49B5
:101E7000086080205C49486108618000086140106A
:101E8000086140004861181258490860802056498E
:101E900048610861800008614010086140004861A5
:101EA000D8B25249086080204F49486108618000DB
:101EB00008614C49888903F067FA4FF480704A49F9
:101EC0000861400048612012484908608020464966
:101ED0004861086180000861401008614000486165
:101EE000E0B24249086080203F49486108618000B3
:101EF0000861401008614000486120123B490860B9
:101F000080203949486108618000086140100861FB
:101F100040004861E0B2354908608020324948619C
:101F200008618000086140E0FFE72E49488903F01E
:101F30002BFA4FF480702C49086140004861181258
:101F40002A490860802028494861086180000861AA
:101F50004010086140004861D8B2244908608020E0
:101F6000214948610861800008611E49888903F0A1
:101F70000BFA4FF480701C49086140004861201240
:101F80001A4908608020184948610861800008618A
:101F90004010086140004861E0B2144908608020A8
:101FA000114948610861800008614FF480700E4952
:101FB0004861400048610B4800890C490860802056
:101FC00009494861086180000861401008614000CB
:101FD000486106480560802048610861800008610A
:101FE00030BD000040010020001001400C0C0140F9
:101FF00008B50121192003F085FA0121FE48FFF7F9
:10200000EFFB4FF4F860ADF8000010208DF80300EE
:1020100003208DF802006946F848FFF755FB4FF49E
:10202000F861F648FFF724FC4FF6FF70ADF80000AA
:102030006946F348FFF748FB4FF6FF71F048FFF79A
:1020400017FC322004F0AEF80121002003F0B6F9AD
:10205000322004F0A7F8D32003F096F902F084FCB4
:10206000E849888002F080FCE649888002F07CFC28
:10207000E4498880084680884FF6FF7101EA002015
:10208000E049888002F070FCDE4989880843DD4918
:1020900088800846808849F2413188427DD00420FA
:1020A00003F072F902F060FCD649888002F05CFC13
:1020B000D449888002F058FCD2498880084680883C
:1020C0004FF6FF7101EA0020CE49888002F04CFCF7
:1020D000CC4989880843CB4988800846808848F2E3
:1020E0005251884203D147F28970C6498880C54859
:1020F000808847F289718842D0D0D42003F044F917
:1021000002F032FCBF49888002F02EFCBD49888075
:1021100002F02AFCBB498880084680884FF6FF7190
:1021200001EA0020B749888002F01EFCB549898881
:102130000843B44988800846808845F210318842B7
:1021400062D055214FF4704003F038F9AA214FF2C4
:10215000010003F033F952214FF2020003F02EF98F
:1021600008214FF2030003F029F901214FF2040086
:1021700003F024F94FF4454003F006F902F0F4FBB4
:10218000A0498880084680884FF6FF7101EA002048
:102190009C4988804CF2015000E035E003F0F4F8EF
:1021A00002F0E2FB97498988084396498880052018
:1021B00003F0F8FF9348808845F21051884223D0FD
:1021C000A12003F0E1F802F0CFFB8E49888002F0F5
:1021D000CBFB8C498880084680884FF6FF7101EA66
:1021E00000208849888002F0BFFB8649898808431F
:1021F000844988800846808845F26171884203D10D
:1022000041F663107F4988807E4881887EA0FEF772
:102210000FF87C48808849F2413188427ED1CF2036
:1022200003F0B2F8002003F09DF8C12003F09AF803
:10223000302003F097F8ED2003F0A6F8642003F0B7
:1022400091F8032003F08EF8122003F08BF8812020
:1022500003F088F8E82003F097F8852003F082F86F
:10226000102003F07FF87A2003F07CF8CB2003F0F5
:102270008BF8392003F076F82C2003F073F8002057
:1022800003F070F8342003F06DF8022003F06AF8D0
:10229000F72003F079F8202003F064F8EA2003F037
:1022A00073F8002003F05EF8002003F05BF8C02014
:1022B00003F06AF81B2003F055F8C12003F064F81E
:1022C000012003F04FF8C52003F05EF8302003F042
:1022D00049F8302003F046F8C72003F055F8B7203E
:1022E00003F040F8362003F04FF8482003F03AF8A6
:1022F0003A2003F049F8552003F034F8B12003F0F8
:1023000043F8002003F02EF81A2003F02BF8B62033
:1023100003F03AF80A2003F025F800E0A8E0A22034
:1023200003F020F8F22003F02FF8002003F01AF851
:10233000262003F029F8012003F014F8E02003F030
:1023400023F80F2003F00EF82A2003F00BF82820C2
:1023500003F008F8082003F005F80E2003F002F857
:10236000082002F0FFFF542002F0FCFFA92002F039
:10237000F9FF432002F0F6FF0A2002F0F3FF0F20DE
:1023800002F0F0FF002002F0EDFF002002F0EAFF73
:10239000002002F0E7FF002002F0E4FFE12002F05D
:1023A000F3FF002002F0DEFF152002F0DBFF172014
:1023B00002F0D8FF072002F0D5FF112002F0D2FF73
:1023C000062002F0CFFF2B2002F0CCFF562002F0B7
:1023D000C9FF3C2002F0C6FF052002F0C3FF102019
:1023E00002F0C0FF0F2002F0BDFF3F2002F0BAFF55
:1023F0003F2002F0B7FF0FE0000230000010014064
:10240000000C014040010020204C43442049443A44
:1024100025780D0A000000000F2002F0A3FF2B20FA
:1024200002F0B2FF002002F09DFF002002F09AFFB0
:10243000012002F097FF3F2002F094FF2A2002F0D3
:10244000A3FF002002F08EFF002002F08BFF00208F
:1024500002F088FFEF2002F085FF112002F094FFC8
:10246000782003F09FFE292002F08EFF02F05FBA71
:10247000FE48808847F2897188427CD1112002F0A1
:1024800083FF782003F08EFE362002F07DFF0020CF
:1024900002F068FF3A2002F077FF052002F062FFA9
:1024A000B22002F071FF0C2002F05CFF0C2002F061
:1024B00059FF002002F056FF332002F053FF332073
:1024C00002F050FFB72002F05FFF352002F04AFF14
:1024D000BB2002F059FF322002F044FFC02002F07E
:1024E00053FF0C2002F03EFFC22002F04DFF0120FE
:1024F00002F038FFC32002F047FF102002F032FF45
:10250000C42002F041FF202002F02CFFC62002F080
:102510003BFF0F2002F026FFD02002F035FFA42061
:1025200002F020FFA12002F01DFFE02002F02CFFAE
:10253000D02002F017FF002002F014FF022002F06A
:1025400011FF072002F00EFF0A2002F00BFF2820E7
:1025500002F008FF322002F005FF442002F002FFE3
:10256000422002F0FFFE062002F0FCFE0E2002F0E8
:10257000F9FE122000E056E002F0F4FE142002F012
:10258000F1FE172002F0EEFEE12002F0FDFED02069
:1025900002F0E8FE002002F0E5FE022002F0E2FE7A
:1025A000072002F0DFFE0A2002F0DCFE282002F005
:1025B000D9FE312002F0D6FE542002F0D3FE47208F
:1025C00002F0D0FE0E2002F0CDFE1C2002F0CAFE6A
:1025D000172002F0C7FE1B2002F0C4FE1E2002F0EE
:1025E000C1FE2A2002F0D0FE002002F0BBFE002037
:1025F00002F0B8FE002002F0B5FEEF2002F0B2FEBD
:102600002B2002F0C1FE002002F0ACFE002002F000
:10261000A9FE012002F0A6FE3F2002F0A3FE292021
:1026200002F0B2FE22E79148808845F210318842DC
:1026300040F07C87ED2002F0A7FE012002F092FE20
:10264000FE2002F08FFEEE2002F09EFEDE2002F061
:1026500089FE212002F086FEF12002F095FE012085
:1026600002F080FEDF2002F08FFE102002F07AFEE2
:10267000C42002F089FE8F2002F074FEC62002F012
:1026800083FE002002F06EFEE22002F06BFEE220EC
:1026900002F068FEE22002F065FEBF2002F074FE48
:1026A000AA2002F05FFEB02002F06EFE0D2002F0C4
:1026B00059FE002002F056FE0D2002F053FE0020CD
:1026C00002F050FE112002F04DFE002002F04AFE02
:1026D000192002F047FE002002F044FE212002F003
:1026E00041FE002002F03EFE2D2002F03BFE0020C5
:1026F00002F038FE3D2002F035FE002002F032FEEE
:102700005D2002F02FFE002002F02CFE5D2002F082
:1027100029FE002002F026FEB12002F035FE8020C6
:1027200002F020FE002002F01DFE8B2002F01AFEB7
:10273000002002F017FE962002F014FE002002F0A6
:1027400011FEB22002F020FE002002F00BFE00205D
:1027500002F008FE022002F005FE002002F002FE58
:10276000032002F0FFFD002002F0FCFDB32002F088
:102770000BFE002002F0F6FD002002F0F3FD002029
:1027800002F0F0FD002002F0EDFD002002F0EAFD75
:10279000002002F0E7FD002002F0E4FD002002F03E
:1027A000E1FD002002F0DEFD002002F0DBFD002054
:1027B00002F0D8FD002002F0D5FD002002F0D2FD8D
:1027C000002002F0CFFD002002F0CCFD002002F03E
:1027D000C9FD002002F0C6FD002002F0C3FD00206C
:1027E00002F0C0FD002002F0BDFD002002F0BAFDA5
:1027F000002002F0B7FD002002F0B4FD002002F03E
:10280000B1FDB42002F0C0FD8B2002F0ABFD002032
:1028100002F0A8FD962002F0A5FD002002F0A2FD26
:10282000A12002F09FFD002002F09CFDB52002F0E7
:10283000ABFD022002F096FD002002F093FD032084
:1028400002F090FD002002F08DFD042002F08AFDD0
:10285000002002F087FDB62002F096FD002002F075
:1028600081FD002002F07EFDB72001E04001002044
:1028700002F08AFD002002F075FD002002F072FDDA
:102880003F2002F06FFD002002F06CFD5E2002F0A0
:1028900069FD002002F066FD642002F063FD002067
:1028A00002F060FD8C2002F05DFD002002F05AFD78
:1028B000AC2002F057FD002002F054FDDC2002F0B5
:1028C00051FD002002F04EFD702002F04BFD002073
:1028D00002F048FD902002F045FD002002F042FD8C
:1028E000EB2002F03FFD002002F03CFDDC2002F076
:1028F00039FD002002F036FDB82002F045FD002031
:1029000002F030FD002002F02DFD002002F02AFD33
:10291000002002F027FD002002F024FD002002F03C
:1029200021FD002002F01EFD002002F01BFDBA2058
:1029300002F02AFD242002F015FD002002F012FD15
:10294000002002F00FFD002002F00CFDC12002F07B
:102950001BFD202002F006FD002002F003FD5420A4
:1029600002F000FD002002F0FDFCFF2002F0FAFC66
:10297000002002F0F7FCC22002F006FD0A2002F05F
:10298000F1FC002002F0EEFC042002F0EBFC002041
:1029900002F0E8FCC32002F0F7FC3C2002F0E2FC6D
:1029A000002002F0DFFC3A2002F0DCFC002002F004
:1029B000D9FC392002F0D6FC002002F0D3FC3720ED
:1029C00002F0D0FC002002F0CDFC3C2002F0CAFC5A
:1029D000002002F0C7FC362002F0C4FC002002F008
:1029E000C1FC322002F0BEFC002002F0BBFC2F2014
:1029F00002F0B8FC002002F0B5FC2C2002F0B2FC82
:102A0000002002F0AFFC292002F0ACFC002002F014
:102A1000A9FC262002F0A6FC002002F0A3FC242042
:102A200002F0A0FC002002F09DFC242002F09AFCA1
:102A3000002002F097FC232002F094FC002002F01A
:102A400091FC3C2002F08EFC002002F08BFC362032
:102A500002F088FC002002F085FC322002F082FCAB
:102A6000002002F07FFC2F2002F07CFC002002F00E
:102A700079FC2C2002F076FC002002F073FC292067
:102A800002F070FC002002F06DFC262002F06AFCCF
:102A9000002002F067FC242002F064FC002002F019
:102AA00061FC242002F05EFC002002F05BFC23208D
:102AB00002F058FC002002F055FCC42002F064FC37
:102AC000622002F04FFC002002F04CFC052002F0D6
:102AD00049FC002002F046FC842002F043FC002068
:102AE00002F040FCF02002F03DFC002002F03AFC35
:102AF000182002F037FC002002F034FCA42002F081
:102B000031FC002002F02EFC182002F02BFC0020EB
:102B100002F028FC502002F025FC002002F022FCEC
:102B20000C2002F01FFC002002F01CFC172002F019
:102B300019FC002002F016FC952002F013FC002086
:102B400002F010FCF32002F00DFC002002F00AFC61
:102B5000E62002F007FC002002F004FCC52002F091
:102B600013FC322002F0FEFB002002F0FBFB4420AD
:102B700002F0F8FB002002F0F5FB652002F0F2FB0A
:102B8000002002F0EFFB762002F0ECFB002002F0C8
:102B9000E9FB882002F0E6FB002002F0E3FBC62000
:102BA00002F0F2FB202002F0DDFB002002F0DAFB55
:102BB000172002F0D7FB002002F0D4FB012002F026
:102BC000D1FB002002F0CEFBC72002F0DDFB00208D
:102BD00002F0C8FB002002F0C5FB002002F0C2FB9F
:102BE000002002F0BFFBC82002F0CEFB002002F064
:102BF000B9FB002002F0B6FB002002F0B3FB00207E
:102C000002F0B0FBC92002F0BFFB002002F0AAFBDB
:102C1000002002F0A7FB002002F0A4FB002002F03D
:102C2000A1FB002002F09EFB002002F09BFB002095
:102C300002F098FB002002F095FB002002F092FBCE
:102C4000002002F08FFB002002F08CFB002002F03D
:102C500089FB002002F086FB002002F083FB0020AD
:102C600002F080FB002002F07DFBE02002F08CFBF4
:102C7000162002F077FB002002F074FB1C2002F00B
:102C800071FB002002F06EFB212002F06BFB0020A4
:102C900002F068FB362002F065FB002002F062FBC8
:102CA000462002F05FFB002002F05CFB522002F0A5
:102CB00059FB002002F056FB642002F053FB002079
:102CC00002F050FB7A2002F04DFB002002F04AFB9C
:102CD0008B2002F047FB002002F044FB992002F019
:102CE00041FB002002F03EFBA82002F03BFB00204D
:102CF00002F038FBB92002F035FB002002F032FB75
:102D0000C42002F02FFB002002F02CFBCA2002F0AE
:102D100029FB002002F026FBD22002F023FB00203A
:102D200002F020FBD92002F01DFB002002F01AFB6C
:102D3000E02002F017FB002002F014FBF32002F069
:102D400011FB002002F00EFBE12002F01DFB16201B
:102D500002F008FB002002F005FB1C2002F002FB41
:102D6000002002F0FFFA222002F0FCFA002002F01C
:102D7000F9FA362002F0F6FA002002F0F3FA4520C4
:102D800002F0F0FA002002F0EDFA522002F0EAFA26
:102D9000002002F0E7FA642002F0E4FA002002F0DA
:102DA000E1FA7A2002F0DEFA002002F0DBFA8B2052
:102DB00002F0D8FA002002F0D5FA992002F0D2FAF7
:102DC000002002F0CFFAA82002F0CCFA002002F096
:102DD000C9FAB92002F0C6FA002002F0C3FAC420F2
:102DE00002F0C0FA002002F0BDFACA2002F0BAFADE
:102DF000002002F0B7FAD22002F0B4FA002002F06C
:102E0000B1FAD82002F0AEFA002002F0ABFAE020CE
:102E100002F0A8FA002002F0A5FAF32002F0A2FACC
:102E2000002002F09FFAE22002F0AEFA052002F044
:102E300099FA002002F096FA0B2002F093FA002093
:102E400002F090FA1B2002F08DFA002002F08AFABC
:102E5000342002F087FA002002F084FA442002F0C5
:102E600081FA002002F07EFA4F2002F07BFA002067
:102E700002F078FA612002F075FA002002F072FA8E
:102E8000792002F06FFA002002F06CFA882002F03C
:102E900069FA002002F066FA972002F063FA002037
:102EA00002F060FAA62002F05DFA002002F05AFA61
:102EB000B72002F057FA002002F054FAC22002F0C4
:102EC00051FA002002F04EFAC72002F04BFA00201F
:102ED00002F048FAD12002F045FA002002F042FA4E
:102EE000D62002F03FFA002002F03CFADD2002F08A
:102EF00039FA002002F036FAF32002F033FA00200B
:102F000002F030FAE32002F03FFA052002F02AFA3C
:102F1000002002F027FA0A2002F024FA002002F032
:102F200021FA1C2002F01EFA002002F01BFA3320C6
:102F300002F018FA002002F015FA442002F012FA0A
:102F4000002002F00FFA502002F00CFA002002F0EC
:102F500009FA622002F006FA002002F003FA782053
:102F600002F000FA002002F0FDF9882002F0FAF9E0
:102F7000002002F0F7F9972002F0F4F9002002F0A7
:102F8000F1F9A62002F0EEF9002002F0EBF9B720EB
:102F900002F0E8F9002002F0E5F9C22002F0E2F9BF
:102FA000002002F0DFF9C72002F0DCF9002002F077
:102FB000D9F9D12002F0D6F9002002F0D3F9D520BA
:102FC00002F0D0F9002002F0CDF9DD2002F0CAF9BC
:102FD000002002F0C7F9F32002F0C4F9002002F04B
:102FE000C1F9E42002F0D0F9012002F0BBF9002081
:102FF00002F0B8F9012002F0B5F9002002F0B2F9B0
:10300000022002F0AFF9002002F0ACF92A2002F011
:10301000A9F9002002F0A6F93C2002F0A3F9002053
:1030200002F0A0F94B2002F09DF9002002F09AF97D
:103030005D2002F097F9002002F094F9742002F06C
:1030400091F9002002F08EF9842002F08BF9002023
:1030500002F088F9932002F085F9002002F082F94D
:10306000A22002F07FF9002002F07CF9B32002F0E8
:1030700079F9002002F076F9BE2002F073F9002001
:1030800002F070F9C42002F06DF9002002F06AF934
:10309000CD2002F067F9002002F064F9D32002F09D
:1030A00061F9002002F05EF9DD2002F05BF90020FA
:1030B00002F058F9F32002F055F9002002F052F91D
:1030C000E52002F061F9002002F04CF9002002F046
:1030D00049F9002002F046F9002002F043F90220ED
:1030E00002F040F9002002F03DF9292002F03AF9FF
:1030F000002002F037F93C2002F034F9002002F001
:1031000031F94B2002F02EF9002002F02BF95D205E
:1031100002F028F9002002F025F9742002F022F9CB
:10312000002002F01FF9842002F01CF9002002F0B8
:1031300019F9932002F016F9002002F013F9A220E9
:1031400002F010F9002002F00DF9B32002F00AF9A4
:10315000002002F007F9BE2002F004F9002002F07E
:1031600001F9C42002F0FEF8002002F0FBF8CD20A7
:1031700002F0F8F8002002F0F5F8D32002F0F2F89F
:10318000002002F0EFF8DC2002F0ECF8002002F062
:10319000E9F8F32002F0E6F8002002F0E3F8E62078
:1031A00002F0F2F8112002F0DDF8002002F0DAF867
:1031B000342002F0D7F8002002F0D4F8562002F0B4
:1031C000D1F8002002F0CEF8762002F0CBF80020F3
:1031D00002F0C8F8772002F0C5F8002002F0C2F82B
:1031E000662002F0BFF8002002F0BCF8882002F050
:1031F000B9F8002002F0B6F8992002F0B3F80020E8
:1032000002F0B0F8BB2002F0ADF8002002F0AAF8FE
:10321000992002F0A7F8002002F0A4F8662002F03E
:10322000A1F8002002F09EF8552002F09BF8002043
:1032300002F098F8552002F095F8002002F092F87C
:10324000452002F08FF8002002F08CF8432002F0B5
:1032500089F8002002F086F8442002F083F800206C
:1032600002F080F8E72002F08FF8322002F07AF8BE
:10327000002002F077F8552002F074F8002002F0E8
:1032800071F8762002F06EF8002002F06BF86620EC
:1032900002F068F8002002F065F8672002F062F89A
:1032A000002002F05FF8672002F05CF8002002F0D6
:1032B00059F8872002F056F8002002F053F89920C0
:1032C00002F050F8002002F04DF8BB2002F04AF85E
:1032D000002002F047F8992002F044F8002002F0A4
:1032E00041F8772002F03EF8002002F03BF844203D
:1032F00002F038F8002002F035F8562002F032F8DB
:10330000002002F02FF8232002F02CF8002002F019
:1033100029F8332002F026F8002002F023F8452097
:1033200002F020F8002002F01DF8E82002F02CF84E
:10333000002002F017F8002002F014F8992002F0A3
:1033400011F8002002F00EF8872002F00BF80020A0
:1033500002F008F8882002F005F8002002F002F8D8
:10336000772001F0FFFF002001F0FCFF662001F054
:10337000F9FF002001F0F6FF882001F0F3FF0020A4
:1033800001F0F0FFAA2001F0EDFF002001F0EAFFBC
:10339000BB2001F0E7FF002001F0E4FF992001F0DD
:1033A000E1FF002001F0DEFF662001F0DBFF0020DE
:1033B00001F0D8FF552001F0D5FF002001F0D2FF29
:1033C000552001F0CFFF002001F0CCFF442001F098
:1033D000C9FF002001F0C6FF442001F0C3FF002018
:1033E00001F0C0FF552001F0BDFF002001F0BAFF41
:1033F000E92001F0C9FFAA2001F0B4FF002001F08C
:10340000B1FF002001F0AEFF002001F0ABFF002073
:1034100001F0BAFFAA2001F0A5FFCF2001F0B4FF10
:10342000002001F09FFF002001F09CFF002001F030
:1034300099FF002001F096FF002001F093FF00208B
:1034400001F090FF002001F08DFF002001F08AFFC5
:10345000002001F087FF002001F084FF002001F030
:1034600081FF002001F07EFF002001F07BFF0020A3
:1034700001F078FF002001F075FF002001F072FFDD
:10348000002001F06FFFF02001F07EFF002001F02E
:1034900069FF502001F066FF002001F063FF00206B
:1034A00001F060FF002001F05DFFF32001F06CFFF0
:1034B000002001F057FFF92001F066FF062001F01F
:1034C00051FF102001F04EFF292001F04BFF00209A
:1034D00001F048FF3A2001F057FF552001F042FF6C
:1034E000112001F051FF642002F05CFE292001F060
:1034F0004BFF352001F048FF002001F033FF512041
:1035000001F042FFFF2001F02DFF532001F03CFFAE
:103510002C2001F027FF552001F036FF822001F01A
:1035200021FF2C2001F030FF01F001BAFE48808815
:1035300045F2105188427DD155214FF4704001F081
:103540003DFFAA214FF2010001F038FF52214FF256
:10355000020001F033FF08214FF2030001F02EFFBB
:1035600001214FF2040001F029FF0D214FF43040FA
:1035700001F024FF0D214BF2010001F01FFF0D218E
:103580004BF2020001F01AFF34214FF4364001F0F3
:1035900015FF34214BF2016001F010FF34214BF292
:1035A000026001F00BFF0D214FF4314001F006FFE6
:1035B0000D214BF2011001F001FF0D214BF2021021
:1035C00001F0FCFE34214FF4374001F0F7FE3421C6
:1035D0004BF2017001F0F2FE34214BF2027001F067
:1035E000EDFE00214FF4324001F0E8FE00214BF2E5
:1035F000012001F0E3FE00214BF2022001F0DEFE8B
:1036000024214FF4384001F0D9FE24214BF601006B
:1036100001F0D4FE24214BF6020001F0CFFE01217F
:103620004FF43F4001F0CAFE0F214FF4334001F048
:10363000C5FE00E0FDE30F214BF2013001F0BEFEBC
:103640000F214BF2023001F0B9FE34214FF4394022
:1036500001F0B4FE34214BF6011001F0AFFE34212D
:103660004BF6021001F0AAFE08214FF4354001F09C
:10367000A5FE08214BF2015001F0A0FE08214BF2FB
:10368000025001F09BFE03214FF4424001F096FEF0
:1036900024214FF43A4001F091FE24214BF6012001
:1036A00001F08CFE24214BF6022001F087FE002160
:1036B0004FF43C4001F082FE78214BF6014001F0CE
:1036C0007DFE00214BF6024001F078FE00214FF410
:1036D0003D4001F073FE78214BF6015001F06EFE83
:1036E00000214BF6025001F069FE00214FF43E40EC
:1036F00001F064FE64214BF6016001F05FFE0021E1
:103700004FF4514001F05AFE33214DF2011001F007
:1037100055FE00214DF2021001F050FE34214DF211
:10372000031001F04BFE00214DF2041001F046FEA3
:103730003A214DF2051001F041FE00214DF2061034
:1037400001F03CFE4A214DF2071001F037FE002146
:103750004DF2081001F032FE5C214DF2091001F02B
:103760002DFE00214DF20A1001F028FE81214DF2BC
:103770000B1001F023FE00214DF20C1001F01EFE93
:10378000A6214DF20D1001F019FE00214DF20E1090
:1037900001F014FEE5214DF20F1001F00FFE0121A2
:1037A0004DF2101001F00AFE13214DF2111001F03C
:1037B00005FE01214DF2121001F000FE54214DF2E0
:1037C000131001F0FBFD01214DF2141001F0F6FD84
:1037D00082214DF2151001F0F1FD01214DF216107C
:1037E00001F0ECFDCA214DF2171001F0E7FD0221B6
:1037F0004DF2181001F0E2FD00214DF2191001F018
:10380000DDFD02214DF21A1001F0D8FD01214DF22B
:103810001B1001F0D3FD02214DF21C1001F0CEFD72
:1038200034214DF21D1001F0C9FD02214DF21E1090
:1038300001F0C4FD67214DF21F1001F0BFFD022110
:103840004DF2201001F0BAFD84214DF2211001F05B
:10385000B5FD02214DF2221001F0B0FDA4214DF280
:10386000231001F0ABFD02214DF2241001F0A6FD62
:10387000B7214DF2251001F0A1FD02214DF22610D5
:1038800001F09CFDCF214DF2271001F097FD0221A0
:103890004DF2281001F092FDDE214DF2291001F0C9
:1038A0008DFD02214DF22A1001F088FDF2214DF22A
:1038B0002B1001F083FD02214DF22C1001F07EFD52
:1038C000FE214DF22D1001F079FD03214DF22E1055
:1038D00001F074FD10214DF22F1001F06FFD032156
:1038E0004DF2301001F06AFD33214DF2311001F03C
:1038F00065FD03214DF2321001F060FD6D214DF2A6
:10390000331001F05BFD00214FF4524001F056FDF1
:1039100033214DF2012001F051FD00214DF2022032
:1039200001F04CFD342101E0400100204DF2032064
:1039300001F044FD00214DF2042001F03FFD3A2149
:103940004DF2052001F03AFD00214DF2062001F074
:1039500035FD4A214DF2072001F030FD00214DF2E6
:10396000082001F02BFD5C214DF2092001F026FD1D
:1039700000214DF20A2001F021FD81214DF20B20A2
:1039800001F01CFD00214DF20C2001F017FDA621D5
:103990004DF20D2001F012FD00214DF20E2001F03C
:1039A0000DFDE5214DF20F2001F008FD01214DF242
:1039B000102001F003FD13214DF2112001F0FEFC57
:1039C00001214DF2122001F0F9FC54214DF2132097
:1039D00001F0F4FC01214DF2142001F0EFFC8221F2
:1039E0004DF2152001F0EAFC01214DF2162001F004
:1039F000E5FCCA214DF2172001F0E0FC02214DF256
:103A0000182001F0DBFC00214DF2192001F0D6FC5A
:103A100002214DF21A2001F0D1FC01214DF21B20B0
:103A200001F0CCFC02214DF21C2001F0C7FC342136
:103A30004DF21D2001F0C2FC02214DF21E2001F0CA
:103A4000BDFC67214DF21F2001F0B8FC02214DF2B0
:103A5000202001F0B3FC84214DF2212001F0AEFCC6
:103A600002214DF2222001F0A9FCA4214DF22320D5
:103A700001F0A4FC02214DF2242001F09FFCB721AB
:103A80004DF2252001F09AFC02214DF2262001F092
:103A900095FCCF214DF2272001F090FC02214DF240
:103AA000282001F08BFCDE214DF2292001F086FC5C
:103AB00002214DF22A2001F081FCF2214DF22B204F
:103AC00001F07CFC02214DF22C2001F077FCFE215C
:103AD0004DF22D2001F072FC03214DF22E2001F059
:103AE0006DFC10214DF22F2001F068FC03214DF2F6
:103AF000302001F063FC33214DF2312001F05EFCF7
:103B000003214DF2322001F059FC6D214DF233209A
:103B100001F054FC00214FF4534001F04FFC3321DD
:103B20004DF2013001F04AFC00214DF2023001F06B
:103B300045FC34214DF2033001F040FC00214DF2F0
:103B4000043001F03BFC3A214DF2053001F036FC27
:103B500000214DF2063001F031FC4A214DF20730D0
:103B600001F02CFC00214DF2083001F027FC5C2113
:103B70004DF2093001F022FC00214DF20A3001F033
:103B80001DFC81214DF20B3001F018FC00214DF29B
:103B90000C3001F013FCA6214DF20D3001F00EFCAB
:103BA00000214DF20E3001F009FCE5214DF20F30FD
:103BB00001F004FC01214DF2103001F0FFFB132154
:103BC0004DF2113001F0FAFB01214DF2123001F0FB
:103BD000F5FB54214DF2133001F0F0FB01214DF2C1
:103BE000143001F0EBFB82214DF2153001F0E6FBC1
:103BF00001214DF2163001F0E1FBCA214DF21730E0
:103C000001F0DCFB02214DF2183001F0D7FB00215E
:103C10004DF2193001F0D2FB02214DF21A3001F0C1
:103C2000CDFB01214DF21B3001F0C8FB02214DF20A
:103C30001C3001F0C3FB34214DF21D3001F0BEFBFE
:103C400002214DF21E3001F0B9FB67214DF21F3009
:103C500001F0B4FB02214DF2203001F0AFFB8421D2
:103C60004DF2213001F0AAFB02214DF2223001F089
:103C7000A5FBA4214DF2233001F0A0FB02214DF25F
:103C8000243001F09BFBB7214DF2253001F096FB6B
:103C900002214DF2263001F091FBCF214DF2273069
:103CA00001F08CFB02214DF2283001F087FBDE2170
:103CB0004DF2293001F082FB02214DF22A3001F051
:103CC0007DFBF2214DF22B3001F078FB02214DF209
:103CD0002C3001F073FBFE214DF22D3001F06EFB14
:103CE00003214DF22E3001F069FB10214DF22F30EF
:103CF00001F064FB03214DF2303001F05FFB332112
:103D00004DF2313001F05AFB03214DF2323001F017
:103D100055FB6D214DF2333001F050FB00214FF483
:103D2000544001F04BFB33214DF2014001F046FBC2
:103D300000214DF2024001F041FB34214DF20340DD
:103D400001F03CFB00214DF2044001F037FB3A2129
:103D50004DF2054001F032FB00214DF2064001F02A
:103D60002DFB4A214DF2074001F028FB00214DF2C6
:103D7000084001F023FB5C214DF2094001F01EFBDD
:103D800000214DF20A4001F019FB81214DF20B4058
:103D900001F014FB00214DF20C4001F00FFBA621B5
:103DA0004DF20D4001F00AFB00214DF20E4001F0F2
:103DB00005FBE5214DF20F4001F000FB01214DF222
:103DC000104001F0FBFA13214DF2114001F0F6FA18
:103DD00001214DF2124001F0F1FA54214DF213404D
:103DE00001F0ECFA01214DF2144001F0E7FA8221D2
:103DF0004DF2154001F0E2FA01214DF2164001F0BA
:103E0000DDFACA214DF2174001F0D8FA02214DF235
:103E1000184001F0D3FA00214DF2194001F0CEFA1A
:103E200002214DF21A4001F0C9FA01214DF21B4066
:103E300000E005E301F0C2FA02214DF21C4001F05E
:103E4000BDFA34214DF21D4001F0B8FA02214DF2C5
:103E50001E4001F0B3FA67214DF21F4001F0AEFAA7
:103E600002214DF2204001F0A9FA84214DF22140B7
:103E700001F0A4FA02214DF2224001F09FFAA421A0
:103E80004DF2234001F09AFA02214DF2244001F054
:103E900095FAB7214DF2254001F090FA02214DF23A
:103EA000264001F08BFACF214DF2274001F086FA2F
:103EB00002214DF2284001F081FADE214DF2294025
:103EC00001F07CFA02214DF22A4001F077FAF2214A
:103ED0004DF22B4001F072FA02214DF22C4001F01C
:103EE0006DFAFE214DF22D4001F068FA03214DF2EA
:103EF0002E4001F063FA10214DF22F4001F05EFADE
:103F000003214DF2304001F059FA33214DF2314096
:103F100001F054FA03214DF2324001F04FFA6D21C5
:103F20004DF2334001F04AFA00214FF4554001F0C0
:103F300045FA33214DF2015001F040FA00214DF2D3
:103F4000025001F03BFA34214DF2035001F036FAF1
:103F500000214DF2045001F031FA3A214DF20550A2
:103F600001F02CFA00214DF2065001F027FA4A2107
:103F70004DF2075001F022FA00214DF2085001F0F5
:103F80001DFA5C214DF2095001F018FA00214DF2A2
:103F90000A5001F013FA81214DF20B5001F00EFA94
:103FA00000214DF20C5001F009FAA6214DF20D50FE
:103FB00001F004FA00214DF20E5001F0FFF9E52165
:103FC0004DF20F5001F0FAF901214DF2105001F0BD
:103FD000F5F913214DF2115001F0F0F901214DF2E4
:103FE000125001F0EBF954214DF2135001F0E6F9B3
:103FF00001214DF2145001F0E1F982214DF21550EA
:1040000001F0DCF901214DF2165001F0D7F9CA2177
:104010004DF2175001F0D2F902214DF2185001F083
:10402000CDF900214DF2195001F0C8F902214DF2ED
:104030001A5001F0C3F901214DF21B5001F0BEF9F5
:1040400002214DF21C5001F0B9F934214DF21D50FE
:1040500001F0B4F902214DF21E5001F0AFF96721D1
:104060004DF21F5001F0AAF902214DF2205001F04B
:10407000A5F984214DF2215001F0A0F902214DF261
:10408000225001F09BF9A4214DF2235001F096F942
:1040900002214DF2245001F091F9B7214DF2255043
:1040A00001F08CF902214DF2265001F087F9CF2161
:1040B0004DF2275001F082F902214DF2285001F013
:1040C0007DF9DE214DF2295001F078F902214DF2FF
:1040D0002A5001F073F9F2214DF22B5001F06EF9E4
:1040E00002214DF22C5001F069F9FE214DF22D50C4
:1040F00001F064F903214DF22E5001F05FF9102117
:104100004DF22F5001F05AF903214DF2305001F0D9
:1041100055F933214DF2315001F050F903214DF2A0
:10412000325001F04BF96D214DF2335001F046F958
:1041300000214FF4564001F041F933214DF2016066
:1041400001F03CF900214DF2026001F037F9342111
:104150004DF2036001F032F900214DF2046001F0EC
:104160002DF93A214DF2056001F028F900214DF2B8
:10417000066001F023F94A214DF2076001F01EF9B3
:1041800000214DF2086001F019F95C214DF209603F
:1041900001F014F900214DF20A6001F00FF98121BC
:1041A0004DF20B6001F00AF900214DF20C6001F0B4
:1041B00005F9A6214DF20D6001F000F900214DF244
:1041C0000E6001F0FBF8E5214DF20F6001F0F6F80A
:1041D00001214DF2106001F0F1F813214DF2116050
:1041E00001F0ECF801214DF2126001F0E7F85421E2
:1041F0004DF2136001F0E2F801214DF2146001F07C
:10420000DDF882214DF2156001F0D8F801214DF260
:10421000166001F0D3F8CA214DF2176001F0CEF814
:1042200002214DF2186001F0C9F800214DF2196029
:1042300001F0C4F802214DF21A6001F0BFF801212B
:104240004DF21B6001F0BAF802214DF21C6001F042
:10425000B5F834214DF21D6001F0B0F802214DF2A5
:104260001E6001F0ABF867214DF21F6001F0A6F867
:1042700002214DF2206001F0A1F884214DF221606D
:1042800001F09CF802214DF2226001F097F8A42180
:104290004DF2236001F092F802214DF2246001F00A
:1042A0008DF8B7214DF2256001F088F802214DF21A
:1042B000266001F083F8CF214DF2276001F07EF8EF
:1042C00002214DF2286001F079F8DE214DF22960DB
:1042D00001F074F802214DF22A6001F06FF8F2212A
:1042E0004DF22B6001F06AF802214DF22C6001F0D2
:1042F00065F8FE214DF22D6001F060F803214DF2CA
:104300002E6001F05BF810214DF22F6001F056F89D
:1043100003214DF2306001F051F833214DF231604C
:1043200001F04CF803214DF2326001F047F86D21A5
:104330004DF2336001F042F855214FF4704001F026
:104340003DF8AA214FF2010001F038F852214FF256
:10435000020001F033F808214FF2030001F02EF8BB
:1043600000214FF2040001F029F8CC214FF4314034
:1043700001F024F800214BF2011001F01FF8052193
:104380004FF4364001F01AF870214FF4374001F035
:1043900015F870214BF2017001F010F801214FF473
:1043A000384001F00BF803214BF6010001F006F84C
:1043B00003214BF6020001F001F803214BF6030044
:1043C00000F0FCFF02214FF43C4000F0F7FF002119
:1043D0004BF6014000F0F2FF00214BF6024000F0E6
:1043E000EDFFD0214FF4494000F0E8FF02214CF6E8
:1043F000011000F0E3FF50214CF6021000F0DEFF48
:1044000050214CF6031000F0D9FF50214CF6041057
:1044100000F0D4FF00214FF4545000F0CFFF55219D
:104420004FF4685000F0CAFF4FF4885000F0ACFF22
:10443000782001F0DDFE4FF4245000F0A5FF76E275
:10444000FE48808841F663118842F8D1E22000F0EE
:104450009BFF4FF48070FA490861400048611D20BD
:10446000F84908608020F6494861086180000861C9
:1044700040100861400048610220F2490860802035
:10448000EF49486108618000086140100861400000
:1044900048610420EB4908608020E94948610861CF
:1044A00080000861642001F0A3FEE02000F06CFFB2
:1044B0004FF48070E2490861400048610120E14901
:1044C00008608020DE4948610861800008610A2098
:1044D00001F068FEE02000F057FF4FF48070D849EB
:1044E0000861400048610320D64908608020D44913
:1044F00048610861800008610C2001F053FE012032
:1045000000F042FF0A2001F04DFEE62000F03CFFE3
:104510004FF48070CA490861400048612F20C949A2
:1045200008608020C6494861086180000861401029
:10453000086140004861FF20C24908608020C049EE
:1045400048610861800008614010086140004861CE
:10455000FF20BC4908608020B9494861086180009B
:104560000861B02000F010FF4FF48070B44908617A
:10457000400048612020B34908608020B04948616C
:104580000861800008614010086140004861002017
:10459000AC4908608020AA49486108618000086130
:1045A00040100861400048610320A649086080204F
:1045B000A34948610861800008614010086140001B
:1045C000486140F21F309F49086080209C49486143
:1045D00008618000086140100861400048610120C6
:1045E0009849086080209649486108618000086108
:1045F000401008614000486140F2DF1091490860B6
:1046000080208F494861086180000861401008617E
:104610004000486100208B4908608020884948613B
:10462000086180000861B42000F0AEFE4FF4807095
:104630008349086140004861042082490860802065
:104640007F494861086180000861401008614000AE
:10465000486140F21F407B490860802078494861EA
:104660000861800008614010086140004861002036
:1046700074490860802072494861086180000861BF
:1046800040100861400048612E206E49086080207B
:104690006B49486108618000086140100861400072
:1046A00048610020674908608020654948610861C9
:1046B00080000861401008614000486100206149A5
:1046C000086080205E4948610861800008614010F0
:1046D00008614000486100205A490860802058491C
:1046E000486108618000086140100861400048612D
:1046F00000205449086080205149486108618000C9
:104700000861B62000F040FE4FF480704C4908610B
:104710004000486102204B490860802048494861B8
:1047200008618000086140100861400048614FF452
:104730000370444908608020414948610861800055
:104740000861401008614000486100203D49086050
:1047500080203B4948610861800008614010086181
:10476000400048611720374908608020344948617B
:104770000861800008614010086140004861152010
:104780003049086080202E49486108618000086136
:10479000401008614000486100202A4908608020DC
:1047A00027494861086180000861401008614000A5
:1047B0004861002023490860802021494861086140
:1047C00080000861F02000F0DFFD4FF480701C498C
:1047D00008614000486103201A4908608020184998
:1047E0004861086180000861292000F0CDFDD020DB
:1047F00000F0CAFD4FF48070114908614000486123
:1048000000201049086080200D494861086180003F
:104810000861BE2000F0B8FD4FF4807008490861BF
:10482000400048610520074908608020044948612C
:104830000861800008614010086105E04001002027
:10484000001001400C0C014040004861FE203D4931
:10485000086080203C494861086180000861401080
:1048600008614000486101203649086080203649CF
:10487000486108618000086140100861400048619B
:1048800000203049086080202F494861086180007D
:104890000861401008614000486100202949086013
:1048A0008020294948610861800008614010086142
:1048B0004000486100202349086080202249486167
:1048C000086180000861B82000F05EFD4FF4807040
:1048D0001D4908614000486103201A490860802092
:1048E0001949486108618000086140100861400072
:1048F000486101201349086080201349486108611C
:1049000080000861BA2000F03FFD4FF480700E492E
:1049100008614000486101200A49086080200A4976
:104920004861086180000861642000F04DF80020B3
:10493000FDF784F90120054908604FF6FF70FDF787
:1049400057F908BD0C0C014000100140A80122429B
:1049500010B50246012000E050430B1EA1F10104F6
:10496000E1B2F9D110BD000000B54FF08830144914
:104970000860091D0860002011490C310860881585
:10498000104908614000486140204861022001F060
:104990009DFD0B480830006883B24020094908613A
:1049A000C00008614FF0333005490860091D0860F8
:1049B0004FF6FF7002490C310860184600BD000038
:1049C000000C0140001001402DE9F0410446BE20DA
:1049D00000F0DAFC4FF480702D4908614000486116
:1049E00005202C4908608020294948610861800021
:1049F00008614010086140004861204602F0E2FE74
:104A000005464FF06632244B02F02CFF074602F0B9
:104A100095FE2049086080201D494861086180009A
:104A20000861401008614000486101201949086090
:104A300080201749486108618000086140100861C2
:104A400040004861FF2013490860802010494861F8
:104A50000861800008614010086140004861002042
:104A60000C49086080200A4948610861800008619B
:104A7000401008614000486100200649086080201D
:104A800003494861086180000861BDE8F0810000C9
:104A9000001001400C0C014066660440F0B505466C
:104AA00000240027E2488079012805D1E048808869
:104AB00041F66311884208D1DD488079F0B9DC48BD
:104AC000808841F66311884218D1082D15D2DFE89D
:104AD00005F00406080A0C0E101206250DE0072545
:104AE0000BE0042509E0052507E0012505E0002588
:104AF00003E0032501E0022500BF00BF082D1CD202
:104B0000DFE805F00406090C0F12151800BF14E0C9
:104B100044F0800411E044F040040EE044F0C0048E
:104B20000BE044F0200408E044F0600405E044F0A9
:104B3000A00402E044F0E00400BF00BFBC4880884D
:104B400045F21051884202D14FF4585700E0362701
:104B5000B748808849F24131884205D0B4488088FE
:104B600047F28971884201D144F008042146384651
:104B700000F024FCAE48808841F6631188421DD0C5
:104B800004F0200068B1AA480088A94949888842F1
:104B900014DAA74806884088A54908800846468058
:104BA0000CE0A3480088A2494988884206DDA04855
:104BB000068840889E490880084646809C48808830
:104BC00045F2105188427DD19949488900F0DCFBBB
:104BD0004FF4807097490861400048610020964971
:104BE000086080209349486108618000086190490D
:104BF0004989491C88B200F0C7FB4FF480708D4989
:104C000008614000486100208B4908608020894984
:104C1000486108618000086185494989891C88B21A
:104C200000F0B2FB4FF48070824908614000486197
:104C30007F480088401E00127F49086080207D491F
:104C4000486108618000086179494989C91C88B2B6
:104C500000F09AFB4FF4807076490861400048618B
:104C600073480078401EC0B27349086080207149C3
:104C700048610861800008616D49888900F084FB03
:104C80004FF480706B4908614000486100206A4918
:104C900008608020674948610861800008616449B4
:104CA0008989491C88B200F06FFB4FF4807061491C
:104CB00008614000486100205F49086080205D492C
:104CC000486100E033E00861800008615849898943
:104CD000891C88B200F058FB4FF480705549086178
:104CE0004000486152484088401E00125249086006
:104CF0008020504948610861800008614C498989D9
:104D0000C91C88B200F040FB4FF48070494908612B
:104D10004000486146488078401EC0B2464908605D
:104D20008020444948610861800008617FE0404973
:104D3000488900F029FB4FF480703E49086140002B
:104D4000486100203C49086080203A494861086178
:104D50008000086140100861400048610020364929
:104D60000860802033494861086180000861401074
:104D70000861400048612E480088401E00122E49FC
:104D8000086080202B49486108618000086140105C
:104D900008614000486126480078401EC0B226499C
:104DA000086080202349486108618000086120492B
:104DB000888900F0E9FA4FF480701E4908614000CC
:104DC000486100201C49086080201A494861086138
:104DD00080000861401008614000486100201649C9
:104DE0000860802013494861086180000861401014
:104DF0000861400048610E484088401E00120E497C
:104E0000086080200B4948610861800008614010FB
:104E100008614000486106488078401EC0B20649DB
:104E20000860802003494861086180000861F0BD86
:104E300040010020001001400C0C014010B5034659
:104E40000C46B248808841F6631188427ED1AF4853
:104E5000807900283FD1AD480088401EC01A83B237
:104E6000AA49488900F090FA4FF48070A849086177
:104E7000400048610020A74908608020A44948619B
:104E8000086180000861401008614000486100200E
:104E9000A049086080209E4948610861800008613F
:104EA000401008614000486118129A49086080204B
:104EB000974948610861800008614010086140001E
:104EC0004861D8B2934908608020914948610861DF
:104ED0008000086141E08D49488900F055FA4FF49F
:104EE00080708B4908614000486118128949086048
:104EF000802087494861086180000861401008618E
:104F000040004861D8B283490860802080494861E8
:104F100008618000086140100861400048617B48DA
:104F20000088401E00127B49086080207849486153
:104F300008618000086140100861400048617348C2
:104F40000078401EC0B27349086000E046E080204F
:104F50006F4948610861800008616C49888900F0E8
:104F600013FA4FF480706A490861400048612012CA
:104F700068490860802066494861086180000861CE
:104F80004010086140004861E0B26249086080203A
:104F90005F49486108618000086140100861400075
:104FA00048615A484088401E00125A4908608020D3
:104FB000574948610861800008614010086140005D
:104FC000486152488078401EC0B252490860802033
:104FD0004F49486108618000086196E04B4880882D
:104FE00045F21051884250D14849488900F0CCF927
:104FF0004FF48070464908614000486118124549E5
:1050000008608020424948610861800008613F498A
:105010004989491C88B200F0B7F94FF480703C49C7
:10502000086140004861D8B23A4908608020384998
:1050300048610861800008613449888900F0A4F95A
:105040004FF48070324908614000486120123149B4
:10505000086080202E4948610861800008612B4962
:105060008989491C88B200F08FF94FF48070284973
:10507000086140004861E0B2264908608020244968
:1050800048610861800008613FE02049488900F0DC
:105090007BF94FF480701E49086140004861181286
:1050A0001C49086080201A49486108618000086135
:1050B0004010086140004861D8B21649086080205D
:1050C000134948610861800008611049888900F02F
:1050D0005BF94FF480700E4908614000486120126E
:1050E0000C49086080200A49486108618000086115
:1050F0004010086140004861E0B206490860802025
:105100000349486108618000086110BD400100202A
:10511000001001400C0C01402DE9F84F80460E466E
:1051200017461C46B3462046E31704EB5373DB10C7
:1051300021464FEAE47C04EB5C7C4FEAEC0CA4EBE8
:10514000CC0CBCF1000F02D04FF0010C01E04FF08D
:10515000000C6344224604EBD27C4FEA6C0C03FB48
:105160000CF3DBB20093A7F12000C7B2002556E094
:105170000C2C07D107EB47002B4901EB800010F8FE
:10518000059013E0102C05D1284800EB071010F80B
:1051900005900BE0182C07D107EBC700244901EB61
:1051A000800010F8059001E0BDE8F88F4FF0000A8C
:1051B0002FE009F0800030B11E4802883146404699
:1051C000FCF7D4FD07E00A9828B91B48028831464D
:1051D0004046FCF7CBFD4FEA49604FEA1069701C6E
:1051E00086B216484088B04200DCDDE7A6EB0B0033
:1051F000A0420AD15E4608F101001FFA80F80F486C
:105200000088404500DCCFE706E00AF1010000F02D
:10521000FF0ABAF1080FCCDB00BF681CC5B20098CA
:105220008542A5DB00BFBFE7BE850008328A0008C3
:10523000229000085C0000205E0000204001002059
:105240002DE9F84704460D4690469946DDE9096781
:1052500004F0FF0A08EB04001FFA80F809EB0500D0
:105260001FFA80F916E0444502DB5446A81985B2BE
:105270004D4500DB14E0002000903A783346294683
:105280002046FFF749FF304606EBD07104EB610181
:105290008CB27F1C38787E2802DC38782028E2DA4D
:1052A00000BFBDE8F8872DE9FF4F82B00646924661
:1052B0001F46DDE90F480020019000254DE0781BD6
:1052C000401EC1B20A20FFF743FBBAFBF0F00A21EF
:1052D000B0FBF1F201FB1209019850BB781EA84205
:1052E00027DDB9F1000F22D108F0800078B108F075
:1052F0000100A34604EBDB71491001FB056100903E
:1053000088B2234630220399FFF706FF0EE008F02B
:105310000100A34604EBDB71491001FB056100901D
:1053200088B2234620220399FFF7F6FE13E00120FE
:10533000019008F00100A34604EBDB71491001FB6A
:105340000561009088B209F13001CAB22346039981
:10535000FFF7E2FE00BF681CC5B2BD42AFDB06B07E
:10536000BDE8F08F4FF48071054A11614900516129
:105370000449086080215161116189001161704701
:10538000001001400C0C01404FF48071054A51613E
:10539000490051610449086080215161116189000F
:1053A00011617047001001400C0C014000B502492A
:1053B0000889FFF7E9FF00BD4001002010B5044651
:1053C0000B462046FFF7E0FF4FF480700549086167
:1053D0004000486104480360802048610861800003
:1053E000086110BD001001400C0C014008B50121FE
:1053F000242000F087F84FF48070ADF800001020F2
:105400008DF8030003208DF8020069460948FCF777
:105410005BF94FF480710748FCF72AFA0420ADF8D5
:10542000000069460448FCF74FF904210248FCF7E4
:105430001FFA08BD000801400014014000BFFEE74C
:105440007047000070B5002100230F22C47804B318
:10545000154C246804F4E064C4F5E064210AC1F149
:105460000403CA40447804FA03F1847814402143C9
:1054700009010E4C0678A155047804F01F0501249B
:10548000AC4005786D11AD0005F1E025C5F800418F
:1054900009E0047804F01F050124AC40044D0678AF
:1054A000761145F8264070BD0CED00E000E400E008
:1054B00080E100E002490143024A116070470000A8
:1054C0000000FA050CED00E07047000001460020E6
:1054D000034A506820F44040084350607047000081
:1054E0000010024029B1064AD2690243044BDA6136
:1054F00004E0034AD2698243014BDA61704700003D
:105500000010024029B1064A92690243044B9A6195
:1055100004E0034A92698243014B9A61704700009C
:105520000010024029B1064AD2680243044BDA60F7
:1055300004E0034AD2688243014BDA6070470000FE
:105540000010024030B500210022002400232D4D20
:105550006D6805F00C0121B1042905D0082923D17B
:1055600005E0294D056022E0274D05601FE0254D2F
:105570006D6805F47012234D6D6805F480340225C2
:1055800005EB92421CB9214D554305600BE01D4DC2
:105590006D6805F400351DB11C4D5543056002E0F2
:1055A000194D5543056002E0174D056000BF00BF6F
:1055B000144D6D6805F0F0010909154D6B5C056827
:1055C000DD4045600F4D6D6805F4E061090A104D3E
:1055D0006B5C4568DD4085600A4D6D6805F460517F
:1055E000C90A0B4D6B5C4568DD40C560054D6D68B3
:1055F00005F44041890B074D6B5CC568B5FBF3F5BD
:10560000056130BD0010024000127A0000093D0023
:105610006400002074000020704710B500F002F80C
:1056200010BD00000CB500200190009033480068C8
:1056300040F480303149086000BF3048006800F411
:10564000003000900198401C0190009818B9019812
:10565000B0F5A06FF1D12948006800F4003010B116
:105660000120009001E0002000900098012843D123
:105670002348006840F0100021490860084600688F
:1056800020F0030008600846006840F0020008604F
:105690001A4840681949486008464068486008460A
:1056A000406840F4806048600846406820F47C1000
:1056B00048600846406840F4E810486008460068C2
:1056C00040F08070086000BF0C48006800F0007077
:1056D0000028F9D00948406820F0030007494860D5
:1056E0000846406840F00200486000BF0348406838
:1056F00000F00C000828F9D10CBD00000010024099
:1057000000200240042808D14FF0E021096941F04F
:1057100004014FF0E022116107E04FF0E021096938
:1057200021F004014FF0E022116170477047000042
:1057300010B51348006840F00100114908600846A0
:105740004068104908400E494860084600680E4904
:1057500008400B4908600846006820F48020086073
:105760000846406820F4FE0048604FF41F0088603F
:10577000FFF753FF4FF000600449086010BD0000C0
:10578000001002400000FFF8FFFFF6FE08ED00E009
:1057900030B589B005460C460121C802FFF7B2FEBC
:1057A00001210420FFF7AEFE01210846FFF7AAFE03
:1057B0004FF40060ADF8200018208DF8230003207E
:1057C0008DF8220008A91748FBF77EFFADF81850A6
:1057D000ADF814400020ADF81A00ADF8160005A988
:1057E000114800F03BF97020ADF804000120ADF83D
:1057F00006000020ADF80C004FF48070ADF81000EA
:1058000001A9094800F0DCF80121074800F0AEF8D2
:105810000821054800F012F90121034800F09AF828
:1058200009B030BD00080140002C01401CB5012129
:10583000194800F0AAF800282CD00121164800F0E1
:1058400086F816480088401C1449088008460088DD
:1058500013490988884215DB00201049088001F0AF
:1058600055FC10A010210B46C822CDE900104FF4C2
:1058700087711E20FFF7E4FC00200D4908600DA091
:10588000FAF7D6FC0D48006808B9012000E00020B6
:105890000A4908601CBD00000004004060000020B0
:1058A0000000002054696D65204F7665720000008D
:1058B000040000207A686978696E67008881224256
:1058C0007FB505460C4601210220FFF70BFEADF81F
:1058D0000850ADF804400020ADF80A00ADF806000D
:1058E00001A90E4800F0BAF8012211460B4800F059
:1058F0005DF81D208DF8000000208DF801000320C8
:105900008DF8020001208DF803006846FFF79AFD2C
:105910000121024800F01EF87FBD00000004004095
:1059200010B50121064800F030F840B10548008864
:10593000401C044908800121014800F008F810BD0E
:105940000010004062000020CA4302827047CA4330
:105950000282704721B1028842F00102028004E015
:1059600002884FF6FE731A400280704731B1B0F8DA
:10597000442042F40042A0F8442005E0B0F844205E
:10598000C2F30E02A0F84420704730B50246002052
:1059900000230024158A05EA0103958905EA01041C
:1059A00013B10CB1012000E0002030BD1AB1838991
:1059B0000B43838102E083898B438381704700001E
:1059C00070B5002200230024058C4EF6FF7635408A
:1059D0000584038C8488828B48F6FF752A404FF635
:1059E000FF452A400D884FF6FF7606EA05252A4333
:1059F0004DF6FF752B400D8906EA05352B434D8882
:105A000006EA05352B430B4DA84202D00A4DA842A9
:105A100008D14BF6FF752C408D894FF6FF7606EACC
:105A200085152C4384808283CD88A0F84050038460
:105A300070BD0000002C0140003401400A460021E6
:105A4000818B4FF2FF7319404FF6FF7303EA022375
:105A5000194381837047A0F84010704700220288E4
:105A60001D4B98420ED01D4B98420BD0B0F1804F89
:105A700008D01B4B984205D01A4B984202D01A4BC3
:105A8000984204D14FF68F731A404B881A43174B34
:105A9000984207D0164B984204D04FF6FF431A4065
:105AA000CB881A4302808B8883850B8803850A4B39
:105AB00098420BD0094B984208D00E4B984205D023
:105AC0000D4B984202D00D4B984201D10B7A0386C0
:105AD0000123838270470000002C01400034014004
